:020000020000FC
:0200000025C019
:02000C0057C0DB
:1000400027C07E306D79335B5F707F7B0FE70AB925
:1000500003E004B90FE007B92B9A2C9A239824984F
:1000600008E100936B0001E0009368007894662734
:100070007727882788B993B105E005BD03E606BD5B
:1000800001E000936E000E947A000E948400FBCF82
:100090000F930FB70F9303E606BDA89A4395443616
:1000A00049F4442763956A3029F4662773957630BE
:1000B00009F477270F910FBF0F9118950F930FB782
:1000C0000F9323B1292723FF05C01B9903C08395F4
:1000D0008F7008C024FF06C01C9904C08A958F3F0A
:1000E00009F48FE093B188B901E00BBB0F910FBF0A
:1000F0000F9118952898299A262FF0E0E2E4E20F54
:1001000024912BB90BD008952998289A272FF0E035
:10011000E2E4E20F24912BB901D008952FEF3FEFD5
:0A0120003A95F1F72A95D9F70895F2
:00000001FF
